00COTAHIST.2014BOVESPA 20141231                                                                                                                                                                                                                      
012014010202AAPL34      010APPLE       DRN          R$  000000001321200000000132120000000013212000000001321200000000132120000000013190000000001334000001000000000000000900000000000011890800000000000000009999123100000010000000000000BRAAPLBDR004106
012014010202ABCB4       010ABC BRASIL  PN  EJS N2   R$  000000000123100000000012360000000001170000000000119200000000011900000000001175000000000119001544000000000000361200000000000430789400000000000000009999123100000010000000000000BRABCBACNPR4121
012014010296ABCB4F      020ABC BRASIL  PN  EJS N2   R$  000000000121000000000012100000000001176000000000117900000000011760000000001152000000000124900003000000000000000143000000000000168614000000000000009999123100000010000000000000BRABCBACNPR4121
012014010262ABCB4T      030ABC BRASIL  PN  EJS N2361R$  000000000134600000000013470000000001346000000000134600000000013470000000000000000000000000000002000000000000000100000000000000134639000000000000009999123100000010000000000000BRABCBACNPR4121
012014010202ABEV3       010AMBEV S/A   ON           R$  000000000173000000000017500000000001718000000000173900000000017390000000001738000000000174022569000000000008035400000000013974472400000000000000009999123100000010000000000000BRABEVACNOR1100
012014010296ABEV3F      020AMBEV S/A   ON           R$  000000000172600000000017500000000001711000000000173800000000017500000000001740000000000175000341000000000000010795000000000018764429000000000000009999123100000010000000000000BRABEVACNOR1100
012014010262ABEV3T      030AMBEV S/A   ON        180R$  000000000181500000000018160000000001815000000000181500000000018160000000000000000000000000000002000000000000006500000000000011799123000000000000009999123100000010000000000000BRABEVACNOR1100
012014010202ABRE11      010ABRIL EDUCA UNT     N2   R$  000000000332300000000033560000000003198000000000326600000000032530000000003215000000000325500789000000000000104700000000000342050000000000000000009999123100000010000000000000BRABRECDAM15102
012014010296ABRE11F     020ABRIL EDUCA UNT     N2   R$  000000000334000000000033400000000003207000000000325600000000032070000000003207000000000339900007000000000000000159000000000000517853000000000000009999123100000010000000000000BRABRECDAM15102
012014010202ABEV3       010AMBEV S/A   ON           R$  000000000173000000000017500000000001718000000000173900000000017390000000001738000000000174022569000000000008035400000000013974472400000000000000009999123100000010000000000000BRABEVACNOR1100